:100000000C942A000C9448000C9491000C943C0031
:100010000C943C000C943C000C943C000C943C0070
:100020000C943C000C943C000C943C000C943C0060
:100030000C943C000C943C000C943C000C943C0050
:100040000C943C000C943C000C943C000C943C0040
:100050000C943C0011241FBECFE5D4E0DEBFCDBF21
:1000600010E0A0E6B0E001C01D92A236B107E1F7B2
:100070000E943E000C94DA000C9400008FEF87BBC6
:1000800011BA18BA8AE085BF80EC8BBF7894FFCF95
:100090001F920F920FB60F9211242F933F938F93BD
:1000A0009F93EF93FF9381E088BB80E593EC0197EA
:1000B000F1F718BA8091600090916100019791F476
:1000C00084E088BB80E395E729E130E0F9013197CE
:1000D000F1F70197D9F718BA1092610010926000F9
:1000E00080E113C088E088BB80E395E729E130E038
:1000F000F9013197F1F70197D9F718BA81E090E04B
:10010000909361008093600080E288BBFF91EF9143
:100110009F918F913F912F910F900FBE0F901F9045
:1001200018951F920F920FB60F9211242F933F93A1
:100130008F939F93EF93FF9382E088BB80E593ECCE
:100140000197F1F718BA80916000909161000197D2
:1001500091F484E088BB80E395E729E130E0F90180
:100160003197F1F70197D9F718BA10926100109200
:10017000600080E113C088E088BB80E395E729E157
:1001800030E0F9013197F1F70197D9F718BA81E01A
:1001900090E0909361008093600080E288BBFF91C3
:1001A000EF919F918F913F912F910F900FBE0F90E4
:0801B0001F901895F894FFCF91
:00000001FF
